:100000000C9438160C9462160C9462160C946216BA
:100010000C9462160C9462160C9462160C94621680
:100020000C9462160C9462160C9462160C94621670
:100030000C9462160C94DEA40C9462160C94621656
:100040000C9462160C9421B30C94004D0C9462161F
:100050000C944E420C9462160C9462160C94621628
:100060000C9462160C9462160C9462160C94621630
:100070000C9462160C9462160C9462160C94621620
:100080000C9462160C9462160C946216C14BC44B0D
:10009000B74BBB4BDB4BDB4BC84BCC4BD24BD64BA4
:1000A0006F4C744C794C834CB14CB14C8D4C954C8D
:1000B0009D4CA74C084AD73B3BCE016E84BCBFFD8C
:1000C000C12F3D6C74319ABD56833DDA3D00C77F28
:1000D00011BED9E4BB4C3E916BAAAABE00000080C1
:1000E0003F05A84CCDB2D44EB93836A9020C50B950
:1000F000918688083CA6AAAA2ABE000000803F007C
:100100004E414E494E495459494E46CDCCCC3D0AFC
:10011000D7233C17B7D13877CC2B329595E6241FDF
:10012000B14F0A000020410000C84200401C462098
:10013000BCBE4CCA1B0E5AAEC59D74536C6565702F
:100140002E2E2E004D65736820706F696E742063CB
:10015000616E6E6F74206265207265736F6C766578
:10016000640A00436C69636B20746F207265737559
:100170006D652E2E2E004E6F206D6F76652E00451C
:100180006E642066696C65206C6973740A00426550
:1001900067696E2066696C65206C6973740A004635
:1001A000696C652064656C657465643A0044656CCF
:1001B0006574696F6E206661696C65642C204669A0
:1001C0006C653A20002569730025696D20256973E7
:1001D000002569682025696D2025697300256964FB
:1001E000202569682025696D2025697300256979B6
:1001F00020256964202569682025696D202569739B
:10020000005072696E742074696D653A20004B4924
:100210004C4C45442E200020573A004520436F6F38
:100220006C696E672E2E2E00452048656174696EDC
:10023000672E2E2E0020573A0042656420636F6FB0
:100240006C696E672E2E2E004265642068656174AD
:10025000696E672E2E2E00456E6465722D33204F19
:1002600066662E00544845524D414C5F50524F54E3
:10027000454354494F4E004155544F5245504F52FB
:10028000545F53445F53544154555300454D4552B8
:1002900047454E43595F50415253455200434153E5
:1002A000455F4C494748545F4252494748544E4580
:1002B000535300544F47474C455F4C4947485453AC
:1002C00000534F4654574152455F504F57455200D7
:1002D0004255494C445F50455243454E54004C45AD
:1002E00056454C494E475F44415441005A5F505275
:1002F0004F4245004155544F4C4556454C005052D5
:10030000494E545F4A4F420050524F475245535353
:10031000004155544F5245504F52545F54454D5033
:1003200000564F4C554D4554524943004545505297
:100330004F4D0053455249414C5F584F4E5F584F07
:100340004646004649524D574152455F4E414D4544
:100350003A4D61726C696E20312E312E392028475A
:1003600069746875622920534F555243455F434F66
:1003700044455F55524C3A68747470733A2F2F6736
:1003800069746875622E636F6D2F4D61726C696E52
:100390004669726D776172652F4D61726C696E206E
:1003A00050524F544F434F4C5F56455253494F4E56
:1003B0003A312E30204D414348494E455F54595003
:1003C000453A456E6465722D332045585452554464
:1003D00045525F434F554E543A3120555549443AA2
:1003E00063656465326132662D343161322D343794
:1003F00034382D396231322D633535633632663308
:10040000363766660A002F2F20007A5F6D696E3AD4
:100410002000795F6D696E3A2000785F6D696E3AF1
:1004200020005265706F7274696E6720656E647328
:10043000746F70207374617475730A004D313435B4
:1004400020533C696E6465783E206F7574206F663A
:100450002072616E67652028302D31290A002054F2
:1004600000205200416363656C65726174696F6E50
:100470003A2050005741524E494E4721204C6F7749
:10048000205A204A65726B206D6179206C65616429
:1004900020746F20756E77616E746564207061756D
:1004A0007365732E0A00486F6D65202573257325CB
:1004B00073206669727374002066697273740A002F
:1004C0005A0059005800486F6D6520004F666673EA
:1004D000657473206170706C696564004572723A6E
:1004E00020546F6F206661722100546F6F20666127
:1004F000722066726F6D207265666572656E6365E7
:1005000020706F696E740A00205A0020590058004C
:1005100020204D61783A2000205A002059005800D0
:1005200020204D696E3A20004F6E20004F66660015
:10053000536F667420656E6473746F70733A200035
:1005400020466C6F773A200000010F150E12FFFF56
:10055000FFFF16170E13FFFFFFFF03021A14FFFF22
:10056000FFFFFFFFFF0C04FFFFFF01000EFFFFFF77
:100570000C190DFF1820643A0020693A0020703AE7
:1005800000496E76616C6964206578747275646583
:10059000720A0043290A0061626C656420286D6953
:1005A0006E2074656D702000436F6C6420657874F4
:1005B00072756465732061726520002364656669E5
:1005C0006E652044454641554C545F4B64200023E2
:1005D000646566696E652044454641554C545F4BE1
:1005E00069200023646566696E652044454641556F
:1005F0004C545F4B702000504944204175746F7417
:10060000756E652066696E69736865642120507532
:100610007420746865206C617374204B702C204BBF
:100620006920616E64204B6420636F6E7374616E29
:1006300074732066726F6D2062656C6F7720696ECF
:10064000746F20436F6E66696775726174696F6E4F
:100650002E680A00504944204175746F74756E65A8
:10066000206661696C6564212074696D656F7574BD
:100670000A00453120544845524D414C2052554EB8
:100680004157415900546865726D616C2052756E16
:10069000617761790045312048656174696E672032
:1006A0006661696C65640048656174696E6720669F
:1006B00061696C656400504944204175746F7475BC
:1006C0006E65206661696C6564212054656D706596
:1006D00072617475726520746F6F20686967680A4B
:1006E00000204B643A2000204B693A2000204B70D8
:1006F0003A20000A20436C617373696320504944B7
:10070000200A002054753A2000204B753A20002022
:100710006D61783A2000206D696E3A200020643ABD
:10072000200020626961733A2000504944204175DD
:10073000746F74756E65206661696C656421204212
:100740006164206578747275646572206E756D627F
:1007500065720A00504944204175746F74756E6566
:100760002073746172740A004E6F20636173652098
:100770006C696768740A004F66660A0046616465C2
:10078000204865696768742000426564204C65767E
:10079000656C696E6720004661696C656420746FE2
:1007A00020656E61626C6520426564204C657665EB
:1007B0006C696E670A004D65736820426564204C61
:1007C0006576656C20646174613A0A004D657368F2
:1007D00020706F696E742063616E6E6F7420626545
:1007E000207265736F6C7665640A004D3432312077
:1007F000696E636F727265637420706172616D659A
:100800007465722075736167650A00454550524FE3
:100810004D204F4B0A00416374697665204578741A
:1008200072756465723A2000496E76616C69642065
:1008300065787472756465720A004E6F204368654E
:10084000636B73756D2077697468206C696E6520C1
:100850006E756D6265722C204C617374204C696EEC
:10086000653A20004B494C4C45442E200053544FD0
:10087000505045442E20005072696E74657220738A
:10088000746F707065642064756520746F20657284
:10089000726F72732E2046697820746865206572C5
:1008A000726F7220616E6420757365204D3939391D
:1008B00020746F20726573746172742E20285465E1
:1008C0006D706572617475726520697320726573ED
:1008D00065742E2053657420697420616674657296
:1008E0002072657374617274696E67290A004E6FB5
:1008F00020436865636B73756D2077697468206C3D
:10090000696E65206E756D6265722C204C61737422
:10091000204C696E653A2000636865636B73756D82
:10092000206D69736D617463682C204C6173742051
:100930004C696E653A20004C696E65204E756D629B
:100940006572206973206E6F74204C617374204C43
:10095000696E65204E756D6265722B312C204C617D
:100960007374204C696E653A20004D313130004D72
:1009700033310053442072656164206572726F7276
:100980000A00446F6E65207072696E74696E67202C
:1009900066696C650A0020496E76616C6964206541
:1009A0007874727564657220000000000000000019
:1009B000000000000000005C4300005C4300007A7F
:1009C0004347322F47332062616420706172616D4A
:1009D00065746572730A00206E6F7420656E7465AD
:1009E0007265642E0A004D3234004D323320257377
:1009F00000556E6B6E6F776E20636F6D6D616E6408
:100A00003A20220053442063617264206F6B0A0015
:100A10006F70656E526F6F74206661696C65640AF1
:100A200000766F6C756D652E696E697420666169FC
:100A30006C65640A00534420696E697420666169BC
:100A40006C0A0057726974696E6720746F2066695A
:100A50006C653A20006F70656E206661696C656434
:100A60002C2046696C653A20006F70656E206661C7
:100A7000696C65642C2046696C653A200046696C97
:100A8000652073656C65637465640A002053697A38
:100A9000653A200046696C65206F70656E65643A42
:100AA00020002066696C653A2000646F696E6700FB
:100AB0006672657368004E6F772000454E44205380
:100AC0005542524F5554494E450A002220706F73CB
:100AD000002220706172656E743A220053554252B2
:100AE0004F5554494E452043414C4C207461726728
:100AF00065743A22004B494C4C45442E20007472D8
:100B000079696E6720746F2063616C6C2073756205
:100B10002D67636F64652066696C657320776974FF
:100B20006820746F6F206D616E79206C6576656CDE
:100B3000732E204D4158206C6576656C2069733AA0
:100B4000004572726F723A0043616E6E6F74206F6F
:100B500070656E2073756264697220006563686FEA
:100B60003A0000060900FE0701920321207FFF07DB
:100B7000FF07FF00000006000001070706020080D3
:100B8000808080800080030202060105A0A0050786
:100B9000070600005050F850F850500507070600AF
:100BA000002078A07028F020050707060000C0C8C4
:100BB00010204098180507070600006090A040A884
:100BC0009068020303060104C04080030707060182
:100BD00000204080808040200307070601008040FD
:100BE000202020408005050506000120A870A820CF
:100BF0000505050600012020F82020020303060257
:100C0000FFC04080050101060003F802020206024F
:100C100000C0C0050505060001081020408005073A
:100C20000706000070888888888870030707060117
:100C30000040C040404040E00507070600007088C3
:100C400008708080F8050707060000F810201008DB
:100C500008F005070706000010305090F810100546
:100C60000707060000F880F00808887005070706E7
:100C70000000708080F0888870050707060000F883
:100C800008102020202005070706000070888870C3
:100C90008888700507070600007088887808087043
:100CA000020505060200C0C000C0C002060606021A
:100CB000FFC0C000C04080040707060000102040AD
:100CC00080402010050303060002F800F80407071F
:100CD0000601008040201020408005070706000024
:100CE000708808102000200507070600007088089B
:100CF00068A8A870050707060000708888F888882B
:100D000088050707060000F08888F08888F0050746
:100D1000070600007088808080887005070706003D
:100D200000F08888888888F0050707060000F880AA
:100D300080F08080F8050707060000F88080F080CA
:100D40008080050707060000708880B888887005D5
:100D50000707060000888888F88888880107070642
:100D600002008080808080808005070706000038B0
:100D70001010101090600507070600008890A0C0B2
:100D8000A09088050707060000808080808080F89A
:100D900005070706000088D8A888888888050707FF
:100DA0000600008888C8A8988888050707060000FC
:100DB00070888888888870050707060000F0888892
:100DC000F080808005070706000070888888A8905A
:100DD00068050707060000F08888F0A090880507DE
:100DE00007060000788080700808F00507070600F5
:100DF00000F8202020202020050707060000888812
:100E00008888888870050707060000888888888891
:100E100050200507070600008888888888A85005A4
:100E200007070600008888502050888805070706B5
:100E3000000088888850202020050707060000F859
:100E40000810204080F8030707060100E08080803A
:100E50008080E0050505060001804020100803079A
:100E600007060100E02020202020E0050303060003
:100E700004205088050101060000F8020202060263
:100E8000058040050505060000700878887805078C
:100E9000070600008080B0C88888F00505050600B8
:100EA00000708080887005070706000008086898B1
:100EB0008888780505050600007088F880700507A9
:100EC000070600003048E0404040400506060600A6
:100ED000FF7088887808700507070600008080B0DA
:100EE000C88888880107070602008000808080800B
:100EF000800308080601FF200020202020A04004D5
:100F00000707060000808090A0C0A0900307070696
:100F10000100C04040404040E0050505060000D00B
:100F2000A8A8A8A8050505060000B0C888888805F7
:100F3000050506000070888888700506060600FF13
:100F4000F08888F080800506060600FF788888789B
:100F50000808050505060000B0C880808005050565
:100F600006000070807008F004070706000040408B
:100F7000E0404040300505050600008888889868F4
:100F8000050505060000888888502005050506002F
:100F9000008888A8A8500505050600008850205044
:100FA000880506060600FF8888887808700505050C
:100FB000060000F8102040F8030707060100204053
:100FC000408040402001070706020080808080802A
:100FD00080800307070601008040402040408005D4
:100FE00002020600026890000000060000000021D6
:100FF00000240027002A0000002200250028002BE2
:1010000000526573656E643A20006F6B0020746F48
:101010006F206C6F6E6720657874727573696F6E80
:101020002070726576656E7465640A0020636F6C6B
:101030006420657874727573696F6E20707265765E
:10104000656E7465640A00627573793A2070617523
:1010500073656420666F7220696E7075740A006231
:101060007573793A2070617573656420666F7220BC
:10107000757365720A00627573793A2070726F63D6
:10108000657373696E670A004B494C4C45442E20CA
:10109000004B494C4C206361757365642062792074
:1010A000746F6F206D75636820696E616374697613
:1010B000652074696D65202D2063757272656E748C
:1010C00020636F6D6D616E643A2000506C656173D2
:1010D00065207265736574005052494E5445522024
:1010E00048414C544544005072696E7465722068E2
:1010F000616C7465642E206B696C6C2829206361B7
:101100006C6C6564210A00656E7175657565696E44
:101110006720220000000000000000000000000026
:1011200000004842000048420000804000000000EB
:101130005761726E696E673A20486F6D696E6720FD
:1011400042756D702044697669736F72203C20315E
:101150000A000202040000A0400000A040000000BD
:101160004000005C4300005C4300007A43FFFFFF47
:101170004C6576656C696E6720446F6E6521004D25
:101180006F7665205A00473239205332004E657819
:101190007420506F696E74002569202F202575001A
:1011A0004732392053310047323920533200436CE3
:1011B00069636B20746F20426567696E00486F6DCC
:1011C000696E672058595A004732380053746F725D
:1011D000652073657474696E6773004C6F61642079
:1011E00073657474696E6773004C6576656C206313
:1011F0006F726E65727300426564205A00426564C6
:10120000205A004661646520486569676874004635
:1012100061646520486569676874004F6666004FC1
:101220006E2000426564204C6576656C696E6700CF
:101230004C6576656C206265640050726570617201
:1012400065005072656865617420414253005072B8
:10125000656865617420504C4100436F6F6C646F2A
:10126000776E0044697361626C6520737465707099
:10127000657273004D383400426564204C657665B4
:101280006C696E67004175746F20686F6D6500470B
:101290003238004D6F76652061786973004D616961
:1012A0006E004D6F76652058004D6F7665205900B1
:1012B0004D6F7665205A00457874727564657200CA
:1012C0004D6F766520302E316D6D004D6F76652047
:1012D000316D6D004D6F76652031306D6D004D6F55
:1012E00076652061786973004578747275646572FB
:1012F000004D6F7665205A004D6F76652059004D80
:101300006F766520580070012C0190012701B00113
:101310002201C0011D01F001180110021301300269
:101320000E016002090190020401C002FF000003E7
:10133000FA004003F5008003F000D003EB00200426
:10134000E6007004E100E004DC004005D700C005C1
:10135000D2004006CD00D006C8008007C300300888
:10136000BE00F008B900C009B400B00AAF00B00B6D
:10137000AA00D00CA500000EA000500F9B00C010CA
:1013800096005012910000148C00C0158700B01711
:101390008200B0197D00D01B7800001E7300402031
:1013A0006E0090226900F024640040275F009029BD
:1013B0005A00E02B5500102E500020304B00103208
:1013C0004600E033410090353C001037370070385C
:1013D0003200A0392D00B03A2800A03B2300603C29
:1013E0001E00103D1900903D1400103E0F00703E8D
:1013F0000A00C03E0500003F0000403FFBFF803F69
:10140000F6FFC03FF1FF202F002042403A0020406D
:101410003A0020746F6F206C6F6E6720657874726D
:101420007573696F6E2070726576656E7465640A97
:101430000020636F6C6420657874727573696F6ED9
:101440002070726576656E7465640A0025753A25AC
:1014500030327500253032753A25303275002575E9
:101460006420253032753A25303275002020202046
:101470002020005A00590020202020005800092078
:1014800000000000000000000000000000003FFF1E
:10149000F000000000000000000000000000380024
:1014A000700000000000000000000000000030FCA0
:1014B000300000000000000000000000000020FCE0
:1014C0001000000000000000000000000000207874
:1014D00010000000000000000000000000002030AC
:1014E00010000000000000000000000000002C00C0
:1014F000D0F80180000C1FE00000082080002E3191
:10150000D048008000123FF00000041040002F7B04
:10151000D043C38CD0023FF00000041040002F7B6A
:10152000D071249267CC3FF00000082080002E315B
:10153000D041249E40021FE00000104100002C001A
:10154000D049249040121FE000002082000020308B
:1015500010FBB3CEE00C3FF00000208200002078AA
:101560001000000000003FF000001041000020FCCF
:101570001000000000003FF000000820800030FC58
:101580003000000000000FC0000000000000380024
:1015900070000000000007800000FFFFC0003FFF58
:1015A000F0000000000003000000FFFFC00000008A
:1015B00000000000000000000000000000003FFFED
:1015C000F0000000000000000000000000003800F3
:1015D00070000000000000000000000000003387E1
:1015E000300000000000000000000000000027871D
:1015F00090000000000000000000000000002F87A5
:10160000D0000000000000000000000000002F8754
:10161000D0000000000000000000000000002F03C8
:10162000D0F80180000C1FE000000820800020306E
:101630001048008000123FF00000041040002078A5
:101640001043C38CD0023FF000000410400020780B
:101650001071249267CC3FF00000082080002030F9
:101660001041249E40021FE00000104100002F03A3
:10167000D049249040121FE00000208200002F87F4
:10168000D0FBB3CEE00C3FF00000208200002F879B
:10169000D000000000003FF000001041000027874C
:1016A0009000000000003FF0000008208000338719
:1016B0003000000000000FC00000000000003800F3
:1016C00070000000000007800000FFFFC0003FFF27
:1016D000F0000000000003000000FFFFC000000059
:1016E0000000060900FE000000000001090008FEDD
:1016F000000005080806000040F0C88888987810A7
:10170000050808060000C0F88888888888F805055C
:10171000050600012030F8302005080806000020EA
:1017200070F820202020E00509090600FF2070A89D
:10173000A8B8888870200509090600FFE080C0B0BD
:10174000A8283028280509090600FFF8A8888888F5
:101750008888A8F8050A0A0600FE205050505088D4
:10176000A8A8887003030306000340A04045455025
:10177000524F4D206461746173697A65206572729D
:101780006F722E0A00290A002062797465733B206B
:10179000637263200053657474696E6773205374B9
:1017A0006F726564202800290A00206279746573CD
:1017B0003B2063726320002073746F726564207332
:1017C000657474696E677320726574726965766595
:1017D00064202800202863616C63756C6174656403
:1017E00029210A0020213D2000454550524F4D201F
:1017F000435243206D69736D61746368202D202806
:1018000073746F7265642920002053697A653A20E9
:1018100000496E6465783A2000204D61726C696EF3
:101820003D563535290A0028454550524F4D3D005B
:10183000454550524F4D2076657273696F6E206D2D
:1018400069736D61746368200045787472756465AE
:1018500072004D6F7665205A004D6F7665205900F5
:101860004D6F766520580050726570617265005248
:101870006573746F7265206661696C73616665007B
:101880004C6F61642073657474696E677300537480
:101890006F72652073657474696E67730046696C56
:1018A000616D656E74004D6F74696F6E0054656D87
:1018B0007065726174757265004D61696E004D33BB
:1018C0003033205531204525692053256900504982
:1018D00044204175746F74756E6500504944204111
:1018E00075746F74756E65005049442D44005049FD
:1018F000442D44005049442D49005049442D49008D
:101900005049442D50005049442D50002008204695
:101910006163740020082046616374002008204D34
:101920006178002008204D6178002008204D696E04
:10193000002008204D696E004F6666004F6E200043
:101940004175746F74656D700046616E20737065CB
:1019500065640046616E207370656564004265646D
:1019600000426564004E6F7A7A6C65004E6F7A7A39
:101970006C6500436F6E74726F6C00000020002372
:1019800000260029000202020202020202040404EC
:101990000404040404030303030303030301010118
:1019A000010101010101020408102040800102042C
:1019B0000810204080010204081020408080402050
:1019C0001008040201000000010200090A000000E2
:1019D00000040308070000000000000000000000F1
:1019E00000000000004B494C4C45442E2000202DA7
:1019F00020496E76616C69642065787472756465DF
:101A000072206E756D62657220210A002020506C74
:101A1000616E6E6572427566666572427974657351
:101A20003A20002046726565204D656D6F72793AE7
:101A30002000436F6D70696C65643A2041756720C2
:101A4000203720323031380A00207C2041757468FC
:101A50006F723A202854616C205A69762062617353
:101A60006564206F6E207468697369736B6569744F
:101A70006862206578616D6C706520636F6E666961
:101A8000672C20456E6465722D33290A003230318F
:101A9000382D30372D333100204C61737420557050
:101AA00064617465643A2000312E312E390A004D8C
:101AB00061726C696E0020536F6674776172652085
:101AC00052657365740A00205761746368646F67B8
:101AD0002052657365740A002042726F776E206F22
:101AE00075742052657365740A00204578746572B8
:101AF0006E616C2052657365740A00506F77657271
:101B000055700A0073746172740A006175746F25F0
:101B1000692E67006572726F722077726974696EE0
:101B20006720746F2066696C650A00456E64737483
:101B30006F707320256320256320256320256300B3
:101B4000205A3A0020593A0020583A00656E6473D2
:101B5000746F7073206869743A2000446F6E65205A
:101B6000736176696E672066696C652E0A004D3276
:101B700039005053553A2047656E657269630050CD
:101B8000726F746F636F6C3A20312E300042617552
:101B9000643A20313135323030004D656C7A69203D
:101BA00028437265616C69747929004D65736820FA
:101BB0004C6576656C696E6700457874727564650E
:101BC00072733A203100687474703A2F2F6D61720D
:101BD0006C696E66772E6F726700456E6465722D54
:101BE0003300323031382D30372D333100312E3142
:101BF0002E39004D61726C696E00546865726D69B2
:101C000073746F727300426F61726420496E666F05
:101C1000005072696E74657220496E666F004D6186
:101C2000696E00434F4D4D554E49434154494F4E07
:101C30000044525952554E004552524F525300499A
:101C40004E464F004543484F00206F6620004D42EE
:101C50004C2047323920706F696E74200059206F14
:101C60007574206F662072616E67652028312D3390
:101C7000292E0A0058206F7574206F662072616EDD
:101C800067652028312D33292E0A004D65736820A1
:101C900070726F62696E6720646F6E652E0A005302
:101CA00074617274206D6573682070726F62696E02
:101CB0006720776974682022473239205331222007
:101CC00066697273742E0A004732380A4732392027
:101CD00053320053746174653A20004D6573682077
:101CE000626564206C6576656C696E6720686173F7
:101CF000206E6F20646174612E0A0053206F75742A
:101D0000206F662072616E67652028302D35292E80
:101D10000A00286E6F2066696C65290053442070A4
:101D200072696E74696E67206279746520004E6F07
:101D300074205344207072696E74696E670A0043A0
:101D4000757272656E742066696C653A2000507217
:101D50006F7465637465642050696E0A006F6B0070
:101D6000441C3F1C381C311C231C6F666600444514
:101D70004255473A004D313133205300205A3A0042
:101D800020593A0020436F756E7420583A00204560
:101D90003A00205A3A0020593A00583A003A004393
:101DA00061703A0024F4D43050C38E20C2A2401790
:101DB000828B7011127A910D816CD90AA861E108A9
:101DC000C7586607615143061E4B5D05C145A70410
:101DD0001A411104093D9803713931034036DB0281
:101DE00065339102D4305402802E1D02632CEE0123
:101DF000752AC501B028A001102781018F25640133
:101E00002B244B01E0223401AC211F018D200D0158
:101E1000801FFC00841EED00971DDF00B81CD2005F
:101E2000E61BC600201BBC00641AB200B219A80051
:101E30000A19A0006A189900D117910040178B0069
:101E4000B516840031167E00B31579003A1573007B
:101E5000C7146F0058146A00EE13660088136300FD
:101E600025135E00C7125B006C1257001512540058
:101E7000C111510070114F0021114B00D6104900C3
:101E80008D1047004610440002104200C00F400071
:101E9000800F3E00420F3C00060F3B00CB0E380087
:101EA000930E37005C0E3500270E3400F30D320020
:101EB000C10D3100900D3000600D2E00320D2D004F
:101EC000050D2C00D90C2B00AE0C2900850C290027
:101ED0005C0C2700350C27000E0C2600E80B2400B4
:101EE000C40B2400A00B23007D0B23005A0B210000
:101EF000390B2100180B2000F80A1F00D90A1E0018
:101F0000BB0A1E009D0A1D00800A1D00630A1C00FA
:101F1000470A1B002C0A1B00110A1A00F7091A00B5
:101F2000DD091900C4091900AB091900920917004D
:101F30007B091800630917004C09160036091600C2
:101F4000200916000A091500F5081500E00814001C
:101F5000CC081400B8081400A4081400900813005A
:101F60007D0812006B081300580812004608120082
:101F70003408110023081100120811000108110093
:101F8000F0071000E0071000D0071000C007100095
:101F9000B0070F00A107100091070E0083070F0084
:101FA00074070F0065070E0057070E0049070E0063
:101FB0003B070D002E070E0020070D0013070D0034
:101FC00006070D00F9060C00ED060D00E0060C00FA
:101FD000D4060C00C8060C00BC060C00B0060C00B1
:101FE000A4060B0099060C008D060B0082060B0060
:101FF00077060B006C060B0061060A0057060B0003
:102000004C060A0042060A0038060A002E060A009C
:1020100024060A001A060A001006090007060A002C
:10202000FD050900F4050900EB050900E2050900BA
:10203000D9050900D0050900C7050900BE0509003A
:10204000B5050800AD050800A50509009C050800B8
:10205000940508008C050800840508007C0508002C
:10206000740508006C050700650508005D0507009C
:10207000560508004E050700470507004005080003
:1020800038050700310507002A050700230507006A
:102090001C050600160507000F05070008050600C9
:1020A00002050700FB040600F5040700EE04060025
:1020B000E8040600E2040700DB040600D50406007D
:1020C000CF040600C9040600C3040600BD040600D0
:1020D000B7040600B1040500AC040600A60406001F
:1020E000A00405009B04060095040500900406006A
:1020F0008A04050085040500800406007A040500B2
:1021000075040500700405006B04050066040500F5
:10211000610405005C040500570405005204050035
:102120004D04050048040500430405003E04040076
:102130003A04050035040500300404002C040500B1
:1021400027040400230405001E0404001A040400EC
:1021500016040500110404000D0404000904050020
:102160000404040000040400FC030400F803040059
:10217000F4030400F0030400EC030400E80304008B
:10218000E4030400E0030400DC030400D8030400BB
:10219000D4030400D0030400CC030400C8030300EC
:1021A000C503030024F404D9201BC40C5C0E98045E
:1021B000C4095F0265077101F405F900FB04B3006F
:1021C00048048700C1036900580355000303450014
:1021D000BE023A008402310053022A00290225007F
:1021E00004022000E4011C00C8011900AF0117001F
:1021F00098011400840113007101100061011000A6
:1022000051010E0043010D0036010B002B010B00A4
:1022100020010B00150109000C0109000301080051
:10222000FB000800F3000800EB000700E4000600D4
:10223000DE000600D8000600D2000600CC00050033
:10224000C7000500C2000500BD000400B90004007D
:10225000B5000400B1000400AD000400A9000400B2
:10226000A5000300A20003009F0004009B000300E0
:102270009800030095000200930003009000030003
:102280008D0002008B00030088000200860002001F
:1022900084000300810002007F0002007D00020034
:1022A0007B00020079000200770001007600020046
:1022B0007400020072000100710002006F00020051
:1022C0006D0001006C0002006A000100690002005C
:1022D0006700010066000100650001006400020063
:1022E0006200010061000100600001005F00020067
:1022F0005D0001005C0001005B0001005A0001006C
:10230000590001005800010057000100560001006B
:10231000550001005400010053000000530001006B
:102320005200010051000100500001004F00010067
:102330004E0000004E0001004D0001004C00010065
:102340004B0000004B0001004A0001004900010061
:10235000480000004800010047000100460000005E
:102360004600010045000000450001004400010056
:102370004300000043000100420000004200010051
:102380004100000041000100400001003F0000004A
:102390003F0001003E0000003E0001003D00000043
:1023A0003D0001003C0000003C0000003C0001003A
:1023B0003B0000003B0001003A0000003A00010031
:1023C000390000003900010038000000380000002A
:1023D000380001003700000037000100360000001F
:1023E0003600000036000100350000003500000016
:1023F000350001003400000034000000340001000A
:102400003300000033000000330001003200000000
:1024100032000000320001003100000031000000F5
:1024200031000100300000003000000030000100E9
:102430002F0000002F0000002F0000002F000100DF
:102440002E0000002E0000002E0001002D000000D4
:102450002D0000002D0000002D0001002C000000C8
:102460002C0000002C0000002C0001002B000000BC
:102470002B0000002B0000002B0001002A000000B0
:102480002A0000002A0000002A00010029000000A4
:102490002900000029000000290000002900010097
:1024A000280000002800000028000000280000008C
:1024B000280001002700000027000000270000007E
:1024C0002700000027000100260000002600000071
:1024D0002600000026000000260001002500000064
:1024E0002500000025000000250000002500000058
:1024F000250001002400000024000000240000004A
:10250000240000002400010023000000230000003C
:10251000230000002300000023000000230000002F
:102520002300010022000000220000002200000021
:102530002200000022000000220001002100000013
:102540002100000021000000210000002100000007
:1025500021000000210001002000000020000000F8
:1025600020000000200000002000000020000000EB
:1025700020000000200001001F0000001F000000DC
:102580001F0000001F0000001F0000001F000000CF
:102590001F0001001E0000001E0000001E000000C1
:1025A0001E000000043700001E290000511B00001F
:1025B0005810000010090000CC0400007802000050
:1025C000410100004261627973746570205A0042D3
:1025D00061627973746570205A00466C6F770046AB
:1025E0006C6F770046616E207370656564004661AC
:1025F0006E20737065656400426564004265640026
:102600004E6F7A7A6C65004E6F7A7A6C650042651F
:1026100064205A00426564205A0053706565640066
:102620005370656564004D61696E00507265686540
:10263000617420504C4120456E640050726568659D
:10264000617420504C41005072656865617420507F
:102650004C412042656400507265706172650050A3
:102660007265686561742041425320456E64005074
:102670007265686561742041425320426564005070
:1026800072656865617420414253005072657061E3
:102690007265004261636B004E65787420636F72EF
:1026A0006E6572006265640A002C2073797374652C
:1026B0006D2073746F707065642120486561746566
:1026C000725F49443A20004265642068656174691C
:1026D0006E67206661696C65640048656174696E47
:1026E00067206661696C65640045312048656174E6
:1026F000696E67206661696C65640048656174692C
:102700006E67206661696C656400453120544845F8
:10271000524D414C2052554E41574159004245447B
:1027200020544845524D414C2052554E4157415935
:1027300000546865726D616C2052756E61776179C5
:10274000004531204572723A204D415854454D5054
:10275000004572723A204D415854454D5020424533
:1027600044004D415854454D502074726967676567
:10277000726564004531204572723A204D494E54CD
:10278000454D50004572723A204D494E54454D50CA
:1027900020424544004D494E54454D5020747269C5
:1027A000676765726564004D383420582059205A97
:1027B0002045007C3C3E5E2B3D3F2F5B5D3B2C2A41
:1027C000225C004572726F722077726974696E675D
:1027D00020746F20454550524F4D210A00486172C8
:1027E00064636F6465642044656661756C7420532E
:1027F000657474696E6773204C6F616465640A0068
:10280000F4010000F40100006400000088130000DF
:102810000000FA430000FA430000A0400000C84155
:102820000000A0420000A0420000C8430000BA42DD
:1028300020286D6D290020440020490020204D33C0
:1028400030312050005049442073657474696E67BC
:10285000733A0A0020460020420020480020204D04
:102860003134352053004D6174657269616C2068A4
:10287000656174757020706172616D6574657273E5
:102880003A0A00205A0020590020204732392053AC
:1028900033205800205A0020204D3432302053007D
:1028A0004D65736820426564204C6576656C696E81
:1028B000673A0A00205A0020590020204D32303655
:1028C000205800486F6D65206F66667365743A0A1C
:1028D00000204500205A00205900205800205400B4
:1028E00020530020204D32303520420020453C6DE1
:1028F00061785F655F6A65726B3E0020583C6D6170
:10290000785F785F6A65726B3E20593C6D61785FD5
:10291000795F6A65726B3E205A3C6D61785F7A5FC1
:102920006A65726B3E00416476616E6365643A204D
:10293000423C6D696E5F7365676D656E745F746947
:102940006D655F75733E20533C6D696E5F666565AE
:1029500064726174653E20543C6D696E5F7472618F
:1029600076656C5F66656564726174653E002054CF
:102970000020520020204D3230342050004163634B
:10298000656C65726174696F6E2028756E69747309
:102990002F7332293A20503C7072696E745F616304
:1029A00063656C3E20523C726574726163745F6152
:1029B0006363656C3E20543C74726176656C5F6144
:1029C0006363656C3E0A00204500205A00205900D0
:1029D00020204D3230312058004D6178696D756D81
:1029E00020416363656C65726174696F6E20287540
:1029F0006E6974732F7332293A0A00204500205AF9
:102A00000020590020204D3230332058004D61788D
:102A1000696D756D206665656472617465732028E3
:102A2000756E6974732F73293A0A00204500205A85
:102A30000020590020204D39322058005374657011
:102A4000732070657220756E69743A0A0020204DFB
:102A50003230302044300A0020204D3230302044C3
:102A6000002044697361626C65640A0046696C61A8
:102A70006D656E742073657474696E67733A0020B7
:102A8000204D3134392043203B20556E697473202A
:102A9000696E2043656C736975730A0020204732A4
:102AA00031202020203B00436F6E74726F6C004613
:102AB000696C2E204469612E0046696C2E204469A1
:102AC000612E004F6666004F6E20004520696E2023
:102AD0006D6D3300436F6E74726F6C0043616E6E88
:102AE0006F7420656E746572207375626469723AE2
:102AF0002000022E2E000152656672657368004D3B
:102B000061696E004D61782054656D703A203132F4
:102B100035004D696E2054656D703A203500544281
:102B200065643A4550434F53203130304B004D617E
:102B3000782054656D703A20323735004D696E202B
:102B400054656D703A20350054303A204550434F5B
:102B500053203130304B00486F6D696E67206661DD
:102B6000696C6564000A4D656173757265642070F7
:102B70006F696E74733A0A005A206F6666736574E3
:102B80003A20004E756D20582C593A20332C330AC8
:102B9000006F70656E206661696C65642C20466903
:102BA0006C653A2000456E6465722D332052656174
:102BB00064792E005072696E74696E672E2E2E0035
:102BC0005072696E7420706175736564005072692B
:102BD0006E742061626F7274656400496E69742E50
:102BE0002053442063617264004D3231004E6F20E7
:102BF00053442063617264004368616E67652053CB
:102C0000442063617264004D3231005072696E7409
:102C10002066726F6D2053440053746F7020707281
:102C2000696E7400526573756D65207072696E749B
:102C30000041626F7574205072696E746572005045
:102C400061757365207072696E7400436F6E747283
:102C50006F6C00507265706172650054756E65002E
:102C6000496E666F2073637265656E00A1DFF7DAE7
:102C700011241FBECFEFD0E4DEBFCDBF12E0A0E035
:102C8000B1E0EAEDFAED01E00BBF02C007900D9252
:102C9000A435B107D9F723E1A4E5B2E001C01D9244
:102CA000AF36B207E1F716E1C7E3D6E104C02197DA
:102CB000FE010E94BFECC633D107C9F70E9418DBA2
:102CC0000C9460ED0C9400002F923F924F925F9213
:102CD0006F927F928F929F92AF92BF92CF92DF922C
:102CE000EF92FF920F931F93CF93DF93CDB7DEB791
:102CF000C456D1090FB6F894DEBF0FBECDBF11E0A8
:102D000010930C06809189058D3409F4E4C1843553
:102D100011F40C94E52A873411F00C94292B20919E
:102D20008705309188052C31310509F47FC06CF49A
:102D30002430310534F4223031058CF537FF28C0BA
:102D4000C6C124303105A1F1C2C12A35310509F4CB
:102D500005C14CF42D31310509F46DC02A3231051D
:102D600009F46DC0B4C12B35310509F4FBC02C3515
:102D7000310509F0ACC157E5252E51E0352E6AE149
:102D8000C62E66E0D62EE12CF12C00E010E027C123
:102D900080914F0181110C94302B0C942B2B81E0EE
:102DA0002230310509F080E00E94C3380C942B2BAF
:102DB00080E50E941536882329F00E9457356B0163
:102DC0007C0103C0C12CD12C760183E50E9415360D
:102DD000882361F00E949B3520E030E04AE754E40C
:102DE0000E948DE50E94CBEA6B017C010E9430D0ED
:102DF0008091F204811105C060E08BE391E00E94B4
:102E000002530E94F44CC60ED71EE81EF91E0E9403
:102E1000F44CDC01CB018C199D09AE09BF09B7FD4B
:102E200002C00C942B2B0E948B55F1CF80E00E94A6
:102E3000B7360C942B2B0E94FEA10C942B2B809167
:102E40004F01882311F40C942B2B89E40E94153632
:102E5000F82E882321F00E946735062F01C000E07C
:102E60008AE40E941536E82E882331F00E946735E7
:102E7000162FF11004C00AC010E0FF20B1F003309B
:102E800010F40C949C30E4E4F1E003C01330D8F764
:102E90000CC084918F010F5F1F4F882311F40C9495
:102EA0002B2B0E94A938F801F4CF0E94AD36FF20E9
:102EB00091F024E00202F0011124EC56FF4E8081D3
:102EC0009181A281B3818093260690932706A093D7
:102ED0002806B0932906EE2091F034E01302F001A9
:102EE0001124E857FF4E80819181A281B3818093A4
:102EF0002A0690932B06A0932C06B0932D0680E50E
:102F00000E941536882319F00E948B3503C080E596
:102F10000E94CE3586E40E9415368823D9F00E949F
:102F20009B356B017C0120E030E0A9010E94B8EBE9
:102F3000181684F420E030E040E752E4C701B601FF
:102F40000E9452EA6093030170930401809305018B
:102F5000909306010E943C580C942B2B109258021F
:102F60000C942B2B109358020C942B2B0E949B3506
:102F70002B013C01133059F0F701EA5AF94F208137
:102F80003181428153810E9457E92B013C01F701B5
:102F9000EA5CFA4F2081318142815381C301B20141
:102FA0000E9457E94B015C012DEB37E346E855EBF6
:102FB0000E94B8EB87FD1BC02DEB37E346E855E3D5
:102FC000C501B4010E9427E518168CF01F5FB4E01C
:102FD000CB0ED11CE4E0EE0EF11C143039F1D1011E
:102FE0008D911D010E941536882381F3BFCF1330C8
:102FF00051F440924205509243056092440570920C
:10300000450501E0E3CFA5019401F60160817181DE
:10301000828193810E9458E9D6016D937D938D93AF
:103020009C931397812F0E949833D0CF002309F4EB
:103030004AC02091E6073091E7074091E807509198
:10304000E907609142057091430580914405909194
:1030500045050E948DE50E94C5EB60938410709336
:1030600085108093861090938710909162108091C4
:103070006310981719F00E94FF7A25C00E9430D083
:1030800080916F0081FB992790F981FF05C08091A5
:103090006F008D7F80936F00409184105091851058
:1030A000609186107091871040931B0F50931C0FF6
:1030B00060931D0F70931E0F992329F080916F006C
:1030C000826080936F000E94EF9E0C942B2B0E94D5
:1030D0001B4A0C942B2B8091870590918805833790
:1030E000910509F4D0C50CF0C3C08B34910509F4E7
:1030F0001EC40CF063C08831910509F474C2A4F5B4
:103100008231910509F4E6C4BCF497FF02C00C9427
:10311000E22A823091050CF4A3C1419711F00C947E
:10312000E22A60E086E791E00E9402535E985E9892
:1031300015985E980C942B2B8531910509F449C2A2
:103140003CF4449711F00C94E22AEEE8F1E000C25E
:103150008631910509F441C2479711F00C94E22A97
:103160000E94EAA10C942B2B8D31910511F40C9443
:103170002B2B94F48A31910509F444C20CF43CC21F
:103180008B31910509F44CC24C9711F00C94E22A52
:103190000E945AA10C942B2B8F31910509F421C365
:1031A0000CF442C28032910509F4CFC28A9711F023
:1031B0000C94E22A0E941EA10C942B2B89369105B7
:1031C00009F4D9C35CF58335910509F47FC49CF4F7
:1031D0008D34910509F4B3C30CF4ADC38135910569
:1031E00009F44EC48235910511F00C94E22A109234
:1031F00057020C942B2B8535910509F4A0C40CF4CF
:1032000069C48C35910509F4B5C48836910511F06F
:103210000C94E22A0E94D8A00C942B2B8E36910598
:1032200009F491C384F48B36910509F417C40CF4A6
:10323000F7C38C36910509F48EC38D36910509F4D8
:10324000A0C30C94E22A8037910509F488C30CF4DA
:103250007EC38137910509F48AC38237910511F045
:103260000C94E22A0E9430D00E94EF9E0C942B2BEB
:10327000823E910511F40C944A240CF06FC08E3BF1
:10328000910509F4B8C374F58837910509F41EC691
:1032900064F48637910509F465C50CF0B3C585372C
:1032A000910509F44EC50C94E22A8C38910509F475
:1032B00084C35CF48937910511F00C94E22A1092D2
:1032C0006108109260080C942B2B8139910509F448
:1032D00003C68B39910511F00C94E22A0E948DA04F
:1032E0000C942B2B8D3C910509F470C7ACF4893CF0
:1032F000910509F4B3C634F4883C910509F466C617
:103300000C94E22A8B3C910509F4CAC68C3C9105C9
:1033100009F4E4C60C94E22A833D910511F40C945F
:10332000EF2284F48E3C910511F00C94E22A07E51B
:10333000C02E01E0D02E83E6E82E88E0F82E10E0C3
:103340000C946F218C3D910511F40C94CF238D3D8D
:10335000910511F40C94DC230C94E22A853AF1E0F7
:103360009F0711F40C94B929F4F58F3231E09307DB
:1033700011F40C94A025DCF48C3251E0950711F483
:103380000C9482243CF48232914011F40C94752404
:103390000C94E22A8D32E1E09E0711F40C94AB24E8
:1033A0008E32914011F40C944C250C94E22A803911
:1033B00021E0920711F40C94A4284CF48336914038
:1033C00011F00C94E22AE1E4FBE00C948D288A3998
:1033D00051E0950709F4C7C2843A914011F40C9466
:1033E000A7280C94E22A873FB1E09B0711F40C94C4
:1033F0009F2AE4F4843FF1E09F0711F40C94992A8A
:1034000034F48C3A914009F47CC70C94E22A853F4D
:1034100041E0940711F40C949C2A863F914011F0EE
:103420000C94E22A0E94E9CA0C942B2B8B38A3E05F
:103430009A0711F40C942B2B3CF4883F914011F423
:103440000C94AA2A0C94E22A803AF3E09F0709F42C
:10345000BBC1873E934011F40C94CD2A0C94E22A10
:10346000A0908505B090860580E50E9415368823DA
:1034700059F00E9457356B017C0111E0672B682BD6
:10348000692B31F410E004C010E0C12CD12C76017E
:1034900083E50E941536882311F40C94352B0E9485
:1034A0009B3520E030E04AE754E40E948DE50E941D
:1034B000CBEA6B017C0111110BC0672B682B692BC8
:1034C00039F4A114B10421F0D5018C91811102C00D
:1034D00010E001C011E00E9430D0112329F061E01A
:1034E000C5010E943E5305C060E083E691E00E9462
:1034F000025383E080930C0681E08093170AC11485
:10350000D104E104F104E9F00E94F44CC60ED71E88
:10351000E81EF91E0E94F44CDC01CB018C199D09B8
:10352000AE09BF09B7FD06C00E9464D81092170A01
:103530000C942B2B8091170A8823B1F30E948B5592
:10354000E9CF8091170A882379F30E948B55F9CF30
:1035500084918F010F5F1F4F882321F00E94A938AB
:10356000F801F6CF1092641340E050E0BA0187E111
:1035700091E10E948CC28BE1E7E1F1E1DE01159659
:1035800001900D928A95E1F7809115119091161195
:103590009C838B838DE092E09A83898340E050E0A6
:1035A000BE016F5F7F4F80E090E00E943544CE0106
:1035B00001960E94FC54EFE7F1E084918F010F5FC8
:1035C0001F4F882311F40C942B2B0E94A938F8016B
:1035D000F4CF0E94D7480C942B2B1092C01010925D
:1035E000C1100C942B2B8091C11081111093C0102D
:1035F0000E9446B90C942B2B1092C0100E9480B9E7
:103600000C942B2B8091C110882311F40C942B2B3C
:1036100083E50E94153681110C943A2B0C942B2BC8
:103620000E9462A10C942B2B8091C110882311F46D
:103630000C942B2B8FEA92E10E9459C28FEA92E1FF
:103640000E9495B91092BF101092BE10009185058E
:10365000109186058091C110882311F40C942B2BB6
:103660000E9411D7B801CE0180960E9459D68C01D4
:10367000892B11F40C942B2B68A179A1611571058C
:1036800011F06C5F7F4F19821C8222E0A801CE01ED
:1036900001960E94EEBD811102C0F12C14C0CE0132
:1036A00001960E94C7D58823C1F361E0CE0101963F
:1036B0000E949EB9009789F325EEFC0120831C82AD
:1036C0000E9466C0F82ECE0101960E94A736FF2008
:1036D00011F1EFE9F1E084917F012FEFE21AF20A94
:1036E000882321F00E94A938F701F5CFD8018D91E8
:1036F0008D01882319F00E94A938F8CF8AE00E9432
:10370000A9381092601310926113109262131092F4
:1037100063130C942B2BEDEAF1E084917F01BFEF52
:10372000EB1AFB0A882321F00E94A938F701F5CF94
:10373000F80181918F01882319F00E94A938F8CFF0
:103740008EE20E94A9380C942B2B8091C01081111D
:103750000E9430D08091C110882311F40C942B2B3F
:1037600080E50E941536882319F00E948B3503C02E
:1037700080E50E94CE35182F482F61E080918505A5
:10378000909186050E94604683E50E941536882345
:1037900081F00E946735AB01BC01409360135093E8
:1037A000611360936213709363138FEA92E10E9436
:1037B0008CC28091C110882319F081E08093C010E1
:1037C00011110C942B2B14CF8091850590918605B7
:1037D00021E02093BF1040E060E00E9460460C941E
:1037E0002B2B0E9412B94CE3C42ED12CE12CF12CCE
:1037F000A70196010E941BE9762E672ECA01B90126
:10380000A70196010E941BE96B017C01CA01B90165
:1038100028E130E040E050E00E941BE94B015C01F0
:10382000C9016DE671E00E9478EC8E010F5F1F4FB9
:103830006115710599F06F927F92DF92CF929F92FE
:103840008F929F938F937F936F938DEE91E09F93D1
:103850008F931F930F930E94BEE412C00097B1F0A4
:103860006F927F92DF92CF929F928F929F938F93CE
:103870008DED91E09F938F931F930F930E94BEE471
:103880000FB6F894DEBF0FBECDBF36C081149104D1
:10389000A104B10479F06F927F92DF92CF929F9250
:1038A0008F9281ED91E09F938F931F930F930E94CE
:1038B000BEE4E6CFC114D104E104F10469F06F92D3
:1038C0007F92DF92CF9289EC91E09F938F931F9329
:1038D0000F930E94BEE4D4CF6F927F9285EC91E06B
:1038E0009F938F931F930F930E94BEE40F900F90AE
:1038F0000F900F900F900F9060E0C8010E943E5310
:10390000ECE5FBE084917F01BFEFEB1AFB0A882313
:1039100021F00E94A938F701F5CFB80181E092E0CB
:103920000E94E16C8AE00E94A9380C942B2B0E9423
:1039300046B90C942B2B0E9480B90C942B2B0E941F
:103940006EA40C942B2B0E947DA00C942B2B0E9418
:1039500006A00C942B2B10923D010C942B2B8EE087
:1039600092E00E9418550E94269E0C942B2B0E94D8
:10397000DC9F0C942B2B0E94BBA010920C060C9485
:10398000A3308DE690E00E947B4181110C942B2B9B
:103990008091B90783FF02C00C942B2B83E50E9412
:1039A00015368CA381110C944B2B82E50E941536A1
:1039B00081110C944B2B0C942B2B8091B90783FF16
:1039C00002C00C942B2B83E50E941536882311F43A
:1039D0000C942B2B0E949B350E94C4EA6D37710515
:1039E00014F06DE770E07093DC026093DB020E94DC
:1039F00059B30C942B2B8091B90783FF02C00C9410
:103A00002B2B83E50E9415368BAB81110C94C52CB2
:103A100082E50E94153681110C94C52C0C942B2B39
:103A200080E50E941536811106C083E50E94153697
:103A3000882361F006C00E94773581110C942B2BEE
:103A4000F4CF0E9467356F3F710510F06FEF70E0A3
:103A50007093E0026093DF020C942B2B80E50E94B0
:103A60001536811106C01092E0021092DF020C940C
:103A70002B2B0E946735672B11F00C942B2BF3CF67
:103A80000E94EFB30E9440D01092E0021092DF0239
:103A900000E010E062E370E080E090E00E94BA4C49
:103AA0000E94B3B70F5F1F4F0331110599F762E30F
:103AB00070E080E090E00E94BA4C0E94B3B760E0F2
:103AC00087E592E00E9402530C942B2B109357022F
:103AD0000C942B2B83E50E9415368823A1F00E94BD
:103AE0009B3520E030E04AE754E40E948DE50E94D7
:103AF000CBEA609308017093090180930A019093C7
:103B00000B010C942B2B88E50E94CE3581110C946F
:103B1000462E89E50E94CE3581110C94462E8AE509
:103B20000E94CE3581110C94462E85E40E94CE353C
:103B300081110C94462E0E9440D00C942B2B83E5CF
:103B40000E94CE35882311F40C942B2B0E949B35B8
:103B500020E030E04AE754E40E948DE50E94CBEA81
:103B600060931106709312068093130690931406C7
:103B70000C942B2B17E5C12E11E0D12E0AEDE02E6F
:103B800007E0F02E10E0D6018D916D010E94CE3538
:103B9000882309F46DC0133009F063C00E949B357F
:103BA0004B015C0120E030E040EA51E40E9427E54F
:103BB00087FF4EC0A50194016091E6077091E70769
:103BC0008091E8079091E9070E9452EA2B013C019D
:103BD0009B01AC0160918C0770918D0780918E07DD
:103BE00090918F070E948DE560938C0770938D07ED
:103BF00080938E0790938F07A30192016091A8078D
:103C00007091A9078091AA079091AB070E948DE55A
:103C10006093A8077093A9078093AA079093AB07B6
:103C20006091C6077091C7078091C8079091C90736
:103C30000E942CE5A30192010E948DE50E94CBEA2F
:103C40006093C6077093C7078093C8079093C9070E
:103C50008092E6079092E707A092E807B092E90702
:103C600007C00E949B35F701608371838283938331
:103C70001F5FF4E0EF0EF11C143009F084CF0E94B6
:103C8000337C0C942B2BE3E4F3E084918F010F5FE2
:103C90001F4F882321F00E94A938F801F6CF60E079
:103CA00083E393E00E94AB9E61E08CE293E00E948C
:103CB000AB9E61E081E293E00E94AB9E61E081E116
:103CC00093E00E94AB9E60E088E093E00E94AB9E90
:103CD00061E08EEF92E00E94AB9E60E084EF92E0A4
:103CE0000E94AB9E60E08CEE92E00E94AB9E61E091
:103CF0008EED92E00E94AB9E60E080ED92E00E942B
:103D0000AB9E60E081EC92E00E94AB9E60E083EBB2
:103D100092E00E94AB9E60E08DE992E00E94AB9E33
:103D200060E08CE892E00E94AB9E60E087E792E062
:103D30000E94AB9E61E084E692E00E94AB9E0C94F0
:103D40002B2B8091850590918605DC012C9121110A
:103D500004C00E9464D80C942B2B60E00E943E5358
:103D60000C942B2B009185051091860583E0D12CB6
:103D700040E08150E1F0F8019081292F2B7F213420
:103D8000C1F721812133A9F7913421F0953421F431
:103D900041E002C0DD24D39498012E5F3F4F89019A
:103DA0002F5F3F4FD8019C919032C9F3E2CF44235B
:103DB00069F0ECE5FBE084917F01BFEFEB1AFB0AB1
:103DC000882321F00E94A938F701F5CFDD2069F0A2
:103DD000E6E0F4E084917F012FEFE21AF20A8823F3
:103DE00021F00E94A938F701F5CFD8018D918D01FE
:103DF000882319F00E94A938F8CF8AE00E94A938D8
:103E00000C942B2BE2E2F4E084918F010F5F1F4FA3
:103E1000882321F00E94A938F801F6CFEAE1F4E006
:103E200084918F010F5F1F4F882321F00E94A938D2
:103E3000F801F6CF329903C001E212E002C006E2B7
:103E400012E0F80181918F01882319F00E94A938AE
:103E5000F8CF8AE00E94A938E2E1F4E084918F0172
:103E60000F5F1F4F882321F00E94A938F801F6CF79
:103E7000339903C001E212E002C006E212E0D80169
:103E80008D918D01882319F00E94A938F8CF8AE01E
:103E90000E94A938EAE0F4E084918F010F5F1F4F80
:103EA000882321F00E94A938F801F6CF349903C085
:103EB00001E212E002C006E212E0F80181918F01F6
:103EC000882309F49ACF0E94A938F7CF109361088C
:103ED000109360080C942B2B83E50E9415368823E1
:103EE00019F00E94673502C060E070E08B01112775
:103EF00002301105D4F0E1E4FBE084918F010F5F03
:103F00001F4F882321F00E94A938F801F6CFECE377
:103F1000F4E084918F010F5F1F4F882311F40C94FC
:103F20002B2B0E94A938F801F4CF88E40E941536A3
:103F30008823A9F00E9467356A3A71053CF0653024
:103F4000F1E07F072CF064E071E002C06AEA70E003
:103F5000F801EE0FFF1FEB57F04F7183608386E48B
:103F60000E9415368823A9F00E946735F801EE0FEC
:103F7000FF1FE357F04F718360836F3F710519F0A6
:103F800014F06FEF70E077FF02C060E070E07183C3
:103F9000608382E40E941536882311F40C942B2B45
:103FA0000E9467356530710534F06F3671052CF06D
:103FB0006EE670E002C065E070E0000F111FF801CE
:103FC000E757F04F718360830C942B2B88EC90E0C3
:103FD0000E947B4181110C942B2B84E40E94CE35EE
:103FE0008823C1F10E949B3511E020E030E0A90157
:103FF0000E9427E5811101C010E01093F10F1123F9
:1040000049F10E949B35E091770624E0E29FF001A0
:104010001124E351F04F608371838283938320E006
:1040200030E0A9016091ED0F7091EE0F8091EF0FDC
:104030009091F00F0E9427E581110CC080E090E084
:10404000A0EEBFE38093ED0F9093EE0FA093EF0FE0
:10405000B093F00F0E94CBCF0C942B2B3AECE32EB5
:1040600037E0F32E07E511E044E0D42ED00ED8015E
:104070008D918D010E94CE35882349F00E949B3599
:104080000E94CBEAF7016083718382839383F4E01B
:10409000EF0EF11CD012EBCF0E94686D0C942B2B0D
:1040A0009CE9E92E97E0F92E07E511E024E0D22EF5
:1040B000D00ED8018D918D010E94CE35882339F024
:1040C0000E949B35F7016083718382839383F4E0C0
:1040D000EF0EF11CD012EDCF0C942B2B83E50E9438
:1040E00015368823A1F00E949B3560939407709346
:1040F0009507809396079093970760939007709326
:104100009107809392079093930710E001C011E00C
:1041100080E50E941536882359F00E949B356093F4
:10412000940770939507809396079093970710E0F4
:1041300082E50E941536882359F00E949B356093D2
:1041400098077093990780939A0790939B0710E0C4
:1041500084E50E941536882361F00E949B356093A8
:1041600090077093910780939207909393070C9414
:104170002B2B112311F40C942B2B4091940750916D
:104180009507609196077091970784E694E00E94E6
:1041900011AC409198075091990760919A077091DE
:1041A0009B0781E694E00E9411AC409190075091EA
:1041B000910760919207709193078EE594E00E94B9
:1041C00011AC8AE00E94A9380C942B2B82E40E9447
:1041D000CE35882351F00E9457356093AC07709319
:1041E000AD078093AE079093AF0783E50E94CE356D
:1041F000882351F00E949B356093B4077093B507F4
:104200008093B6079093B70784E50E94CE35882344
:1042100051F00E949B356093B0077093B107809373
:10422000B2079093B30788E50E94CE35882351F0FA
:104230000E949B356093800770938107809382076B
:104240009093830789E50E94CE35882351F00E9420
:104250009B356093840770938507809386079093BE
:1042600087078AE50E94CE358823F1F00E949B35AE
:10427000609388077093890780938A0790938B07D0
:104280002DEC3CEC4CEC5DE30E9427E5181664F045
:10429000E4E7F4E084918F010F5F1F4F882321F042
:1042A0000E94A938F801F6CF85E40E94CE35882314
:1042B00011F40C942B2B0E949B3560938C07709308
:1042C0008D0780938E0790938F070C942B2B1F5F85
:1042D000F4E0EF0EF11C133011F40C946318D601C6
:1042E0008D916D010E94CE35882389F30E949B3504
:1042F000F7016083718382839383812F0E949833B7
:10430000E6CF80914C06082F017011E0012781FB58
:10431000FF24F0F8F12682FB882780F91827011185
:1043200002C0FF2019F0ECE5FBE015C01111FBCF36
:1043300014E1812E11E1912E26E335E03DA32CA35B
:10434000AE014F5F5F4F5A010DE611E11A0153E0D4
:10435000500F58A77CC084916F012FEFC21AD20A68
:10436000882321F00E94A938F601F5CFE6ECF4E0AD
:1043700084916F013FEFC31AD30A882321F00E9472
:10438000A938F601F5CF002369F0E4ECF4E084915C
:104390006F014FEFC41AD40A882321F00E94A93874
:1043A000F601F5CFFF2069F0E2ECF4E084916F01B3
:1043B0005FEFC51AD50A882321F00E94A938F601BB
:1043C000F5CF111103C0E8EBF4E00DC0E0ECF4E030
:1043D00084916F019FEFC91AD90A8823A1F30E9423
:1043E000A938F601F5CF84916F01AFEFCA1ADA0A46
:1043F000882321F00E94A938F601F5CF111103C0DE
:104400004DE352E002C040E352E0F11003C02DE35F
:1044100032E002C022E332E0011103C08DE392E0FA
:1044200002C084E392E05F934F933F932F939F9357
:104430008F9386EA94E09F938F931F920E94BC48CB
:104440000FB6F894DEBF0FBECDBF0C942B2BF4013A
:104450006591759185919491ACA1BDA1CD90DD90B0
:10446000ED90FD90BDA3ACA3A70196010E9457E972
:104470002B013C0120E030E040EA51EC0E94B8EB17
:1044800087FD10C020E030E040EA51E4C301B201F2
:104490000E9427E5181634F0F101408251826282B1
:1044A00073820DC0F80184911816B4F7F7FAF094EE
:1044B000F7F8F094F101C082D182E282F382D10157
:1044C000CD90DD90ED90FD901D0120E030E040EAC0
:1044D00051ECC701B6010E94B8EB87FF03C0E1E4CD
:1044E000FBE00BC020E030E040EA51E4C701B60138
:1044F0000E9427E518167CF5F2CF84918F010F5F9B
:104500001F4F882321F00E94A938F801F6CFEAEE68
:10451000F4E084918F010F5F1F4F882321F00E94E8
:10452000A938F801F6CF61E08CED94E00E940253C7
:104530000E943F8388E290E099A388A388EC90E0F2
:104540009BA38AA3BE01605E7F4FCE0182960E942C
:1045500051480C942B2BB4E08B0E911C0F5F1F4F16
:10456000E8A5E01374CFB3E6EB2EB8E0FB2E10E025
:10457000F50181919191A191B1915F01F701819331
:104580009193A193B1937F01812F0E9498331F5F74
:10459000133071F70E94EF9E60E08CEC94E00E9473
:1045A000025383E992E09BA38AA304E610E019A3D7
:1045B00008A3BE016E5D7F4FCE0180960E945148D8
:1045C0008AEB92E09BA38AA319A308A3BE016E5DA8
:1045D0007F4FCE0180960E9451480C942B2BECE526
:1045E000FBE084918F010F5F1F4F882321F00E9411
:1045F000A938F801F6CF83E50E94CE35882321F053
:104600000E948B3580931801E0E3F5E084918F01DF
:104610000F5F1F4F882321F00E94A938F801F6CFC1
:1046200080911801811103C0ECE2F5E002C0E8E2DC
:10463000F5E084918F010F5F1F4F882321F00E94C6
:10464000A938F801F6CFE0E2F5E084918F010F5F21
:104650001F4F882321F00E94A938F801F6CF20913E
:104660005606309157064091580650915906609170
:1046700062067091630680916406909165060E94BF
:1046800058E9AB01BC018EE195E00E9411AC20918C
:104690005A0630915B0640915C0650915D06609130
:1046A00066067091670680916806909169060E947F
:1046B00058E9AB01BC018BE195E00E9411AC20915F
:1046C0005E0630915F0640916006509161066091F0
:1046D0006A0670916B0680916C0690916D060E943F
:1046E00058E9AB01BC0188E195E00E9411ACE0E122
:1046F000F5E084918F010F5F1F4F882321F00E9406
:10470000A938F801F6CF209156063091570640910E
:1047100058065091590660910C0170910D018091DD
:104720000E0190910F010E9458E9AB01BC018EE08F
:1047300095E00E9411AC20915A0630915B064091A1
:104740005C0650915D06609110017091110180919D
:104750001201909113010E9458E9AB01BC018BE05A
:1047600095E00E9411AC20915E0630915F06409169
:10477000600650916106609114017091150180915D
:104780001601909117010E9458E9AB01BC0188E025
:1047900095E00E9411AC8AE00E94A9385CC783E5CD
:1047A0000E941536882309F456C70E946735709316
:1047B0004E0160934D014FC78DED90E00E947B410B
:1047C000811149C783E50E9415368823D9F10091EC
:1047D000770610E00E946735000F111FF801E55BB6
:1047E000FE4F718360838091770690E08C01000F0B
:1047F000111F000F111F9801295B3E4F7901880F8F
:10480000991FFC01E55BFE4F60817181072E000C52
:10481000880B990B0E942EE52AE037ED43E25CE31A
:104820000E948DE5F801EF57F04F208131814281E0
:1048300053810E948DE5D7016D937D938D939C9359
:10484000139709C7ECE5FBE084918F010F5F1F4FC1
:10485000882321F00E94A938F801F6CF85E40E9450
:10486000A93880917706805D0E94A938E09177068B
:10487000F0E0EE0FFF1FE55BFE4F6081718180E489
:1048800095E00E94C86C85E20E94A9388AE00E94E7
:10489000A938E1C680E50E94CE35882309F4DBC63D
:1048A0000E9467356B017C0183E50E9415368823E1
:1048B00021F00E9467358B0102C00FEF1FEFC80186
:1048C0000196039708F0C7C6D7FCC5C69C2DE8E43F
:1048D000F5E08DE28E0F2491921711F40C946B2E5B
:1048E00031968E13F8CF0C946E2E8AE50E94153601
:1048F00081110C94962E83E50E94153681110C943B
:10490000962EA9C683E50E941536882319F00E94C9
:10491000673502C064E071E079A368A380E50E9476
:104920001536882339F00E9467356938B3E17B0773
:1049300030F402C068EE73E07A83698304C088E8CB
:1049400093E19A838983BE01605E7F4FCE01019619
:104950000E94514880C685E40E941536811110C01E
:1049600080E50E94CE35882391F00E949B356093AC
:104970003708709338088093390890933A0807C035
:104980000E947735882361F3E1E4FBE06EC089E49F
:104990000E94CE35882381F00E949B352CEA35ECAD
:1049A00047E25EE30E948DE560933F087093400804
:1049B000809341089093420884E40E94CE35882376
:1049C00081F00E949B352CEA35EC47E25EE30E94C1
:1049D00052EA60933B0870933C0880933D089093A3
:1049E0003E08ECE5FBE084918F010F5F1F4F8823A9
:1049F00021F00E94A938F801F6CF40913708509174
:104A000038086091390870913A088DE795E00E9466
:104A100011AC2CEA35EC47E25EE360913F087091FF
:104A2000400880914108909142080E9452EAAB01EF
:104A3000BC0189E795E00E9411AC2CEA35EC47E215
:104A40005EE360913B0870913C0880913D08909135
:104A50003E080E948DE5AB01BC0185E795E00E9410
:104A600011AC8AE00E94A938F6C584918F010F5FCE
:104A70001F4F882321F00E94A938F801F6CFE1E802
:104A8000F5E084918F010F5F1F4F882309F4E3C580
:104A90000E94A938F801F5CF83E50E94CE35182F82
:104AA000882371F00E949B350E94C4EA709328010C
:104AB0006093270121E0672B09F020E02093B807DD
:104AC00080E50E94CE35882359F02091270130914E
:104AD0002801232B11F00E948B358093B807BBC5AA
:104AE0001111B9C5ECE5FBE084918F010F5F1F4FF9
:104AF000882321F00E94A938F801F6CF8091B807E9
:104B0000811103C066E372E002C063E272E088EAEA
:104B100095E00E94E16C609127017091280187E97E
:104B200095E00E94C86CE3E9F5E084918F010F5F86
:104B30001F4F882309F48FC50E94A938F801F5CFCB
:104B400085E40E941536882321F00E9467357B0199
:104B500002C0E12CF12C83E40E941536882331F049
:104B60000E94673529966FAF299704C025E02996E2
:104B70002FAF299785E50E941536882319F00E94EA
:104B80008B3503C085E50E94CE3565968FAF65975E
:104B9000F7FC07C0812C912C56E1A52E53E4B52ECD
:104BA00006C0812C912C4CE8A42E42E4B42E83E55F
:104BB0000E941536882321F00E949B354B015C0131
:104BC000E114F10411F4109277060E94F44C2B01C9
:104BD0003C01EE2069F0EAE2F7E084918F010F5F7B
:104BE0001F4F882309F437C50E94A938F801F5CF73
:104BF000E4E5F7E084917F013FEFE31AF30A8823AD
:104C000021F00E94A938F701F5CFC501B4010E9437
:104C1000C4EA072E000C880B990B0E942EE56CA7A6
:104C200078AB89AB9AABD301C201805E914BAF4F99
:104C3000BF4FA1968CAF9DAFAEAFBFAFA1970E9403
:104C4000EFB38FE78093750681E080933D01609616
:104C50004CAE5DAE6EAE7FAE609769964CAE5DAE0B
:104C60006EAE7FAE69972C961FAE2C976D961CAEDC
:104C70001DAE1EAE1FAE6D971DAA90E499AFACE1BC
:104C8000AAAFB6E4BBAF1CAE1DAE1EAE1FAE2896DB
:104C90001CAE1DAE1EAE1FAE289724961CAE1DAED8
:104CA0001EAE1FAE2497C12CD12C76012FE730E029
:104CB00040E050E028A739A74AA75BA73FE7832E2B
:104CC000912CA12CB12C64961CAE1DAE1EAE1FAE55
:104CD000649731E02B963FAF2B971CAA1BAA10E0DC
:104CE000212C312C00E029964FAD2997042E000C81
:104CF000550B2A965FAF4EAF2A9780913D018823CE
:104D000009F4C9C00E94F44C6CA37DA38EA39FA399
:104D10008091950F882309F4A2C00E94AEB410912F
:104D2000F3072090F4073090F5070091F607212F44
:104D3000322D432D502F6CAD7DAD8EAD9FAD0E94B9
:104D400027E587FF04C01CAF2DAE3EAE0FAF212F6D
:104D5000322D432D502F6DA979AD8AAD9BAD0E94A8
:104D6000B8EB181624F41DAB29AE3AAE0BAF2B9658
:104D70005FAD2B972CA538A949A9552309F450C03C
:104D80005AA9612F722D832D902F0E94B8EB18160F
:104D90000CF065C08CA19DA1AEA1BFA1841995099D
:104DA000A609B709A5968CAF9DAFAEAFBFAFA597CB
:104DB00088589341A109B109B7FD51C0D501C4017B
:104DC00028A539A54AA55BA5821B930BA40BB50B9F
:104DD000B595A7959795879580937506A5968CAD03
:104DE0009DADAEADBFADA59764968CAF9DAFAEAF98
:104DF000BFAF64979CA59CAFA8A9ADAFB9A9BEAF42
:104E0000EAA9EFAF2CA13DA14EA15FA160962CAF06
:104E10003DAF4EAF5FAF60972B961FAE2B971FC075
:104E20005AA9612F722D832D902F0E9427E587FFAD
:104E300016C08CA19DA1AEA1BFA160962CAD3DADC9
:104E40004EAD5FAD6097821B930BA40BB50BAC010D
:104E5000BD01485853416109710977FFA2C720E09D
:104E600030E040EA51E46CA578A989A99AA90E948A
:104E700058E99B01AC01612F722D832D902F0E9468
:104E8000B8EB18167CF4E6EBF6E084918F010F5F27
:104E90001F4F811103C00E94EFB3DDC30E94A938E8
:104EA000F801F3CF8CA19DA1AEA1BFA169962CAD55
:104EB0003DAD4EAD5FAD6997821B930BA40BB50B57
:104EC000B7FD90C00E94436C8AE00E94A9388CA173
:104ED0009DA1AEA1BFA18053984FAF4FBF4F699620
:104EE0008CAF9DAFAEAFBFAF69972C969FAD2C979F
:104EF00091115DC06D962CAD3DAD4EAD5FAD6D9722
:104F0000612F722D832D902F0E94B8EB1816D4F5C7
:104F100020E030E040E050E4612F722D832D902F8F
:104F20000E9458E96D966CAF7DAF8EAF9FAF6D97C5
:104F30002CA13DA14EA15FA1205E314B4F4F5F4F91
:104F4000A1962CAF3DAF4EAF5FAFA19720E030E010
:104F500040EC50E46CA578A989A99AA90E9457E968
:104F60009B01AC0181E02C968FAF2C97612F722DA5
:104F7000832D902F0E94B8EB1816A4F12C961FAE2B
:104F80002C9730C08CA19DA1AEA1BFA1A1962CAD44
:104F90003DAD4EAD5FADA197821B930BA40BB50B3E
:104FA000B7FD20C045E956E067EA76E018C020E08A
:104FB00030E040EA51E46CA578A989A99AA90E9439
:104FC00057E99B01AC01612F722D832D902F0E9418
:104FD00027E587FF07C042E756E065E876E080E016
:104FE0000E94CFB48CA19DA1AEA1BFA1880F991F33
:104FF000AA1FBB1F60962CAD3DAD4EAD5FAD609757
:10500000821B930BA40BB50B84199509A609B7094C
:1050100081389F44A241B10568F0E4E5F6E084914F
:105020008F010F5F1F4F882309F435CF0E94A938E5
:10503000F801F5CF4BA95CA92A968EAD9FAD2A97B2
:10504000841795070CF066C0E7EFF5E084918F01B7
:105050000F5F1F4F882321F00E94A938F801F6CF77
:10506000B701A60183EE95E00E9411AC8AE00E9490
:10507000A93824964CAD5DAD6EAD7FAD24978FEC15
:1050800095E00E9411AC8AE00E94A93828964CADA8
:105090005DAD6EAD7FAD28978BEB95E00E9411ACB6
:1050A0008AE00E94A93865969FAD6597992309F417
:1050B000D2C2C0923708D0923808E0923908F092F4
:1050C0003A082CEA35EC47E25EE324966CAD7DAD00
:1050D0008EAD9FAD24970E948DE560933F0870933D
:1050E000400880934108909342082CEA35EC47E24F
:1050F0005EE328966CAD7DAD8EAD9FAD28970E9486
:1051000052EA60933B0870933C0880933D0890936B
:105110003E08A1C20E941E9AF0CD84918F010F5FBC
:105120001F4F882321F00E94A938F801F6CFE8E646
:10513000F7E084918F010F5F1F4F882309F48BC222
:105140000E94A938F801F5CF0E9430D084C283E5CF
:105150000E94CE35882349F00E948B35082F81119B
:1051600006C080E00E94803102C000915506809107
:10517000360590913705A0913805B091390589839E
:105180009A83AB83BC8380913A0590913B05A091B3
:105190003C05B0913D058D839E83AF83B887809198
:1051A0003E0590913F05A0914005B091410589874A
:1051B0009A87AB87BC870E945031882371F183E4C2
:1051C0000E94CE3581112FC728C0930148A959A943
:1051D0006CA1782D88A59CA50E9458E920E030E0BC
:1051E00040E05FE30E948DE5A20191010E9458E931
:1051F0004B015C012DEB37E346E855EB0E94B8EB21
:1052000087FD5EC72DEB37E346E855E3C501B401E2
:105210000E9427E518160CF453C786E50E94CE3588
:10522000882399F00E945031882379F0E6EBF7E06B
:1052300084917F012FEFE21AF20A882321F00E9465
:10524000A938F701F5CF0E94A0D48AE50E94CE3597
:10525000882329F00E949B3540E00E949B31802FDB
:105260000E948031011103C0ECE5FBE01CC080917D
:1052700055068111F9CFE1E4FBE084918F010F5FC6
:105280001F4F882321F00E94A938F801F6CFE7E9E3
:10529000F7E084918F010F5F1F4F882329F30E944D
:1052A000A938F801F6CF84918F010F5F1F4F882333
:1052B00021F00E94A938F801F6CF8091550681119E
:1052C00003C06EE372E002C06AE372E089E897E02F
:1052D0000E94E16C8AE00E94A938ECE5FBE0849131
:1052E0008F010F5F1F4F882321F00E94A938F8011A
:1052F000F6CFECE7F7E084918F010F5F1F4F882313
:1053000021F00E94A938F801F6CFC0907806D0901D
:105310007906E0907A06F0907B0620E030E0A90163
:10532000C701B6010E94B8EB18164CF442E0C70161
:10533000B6010E94D9418AE00E94A9380CC0E7E773
:10534000F7E084918F010F5F1F4F882321F00E94A7
:10535000A938F801F6CF4CE050E066E375E0CE01E5
:1053600001960E94E9EC892B09F475C10E94EF9E19
:1053700072C188E50E94CE35B82E89E40E94CE35F0
:10538000A82E882319F00E9467351AC0BB20D1F0DF
:105390000E949B3520E030E040E251E40E9457E952
:1053A00020E030E048E452E40E9458E92AE037ED7A
:1053B00043E25CE30E948DE50E94C4EA633010F48E
:1053C000F62E02C0FF24FA9489E50E94CE35E82E1D
:1053D0008AE40E94CE35182F882319F00E94673581
:1053E0001AC0EE20D1F00E949B3520E030E040E270
:1053F00051E40E9457E920E030E048E452E40E9482
:1054000058E92AE037ED43E25CE30E948DE50E9413
:10541000C4EA633010F4062F01C00FEF8AE50E9442
:10542000CE35C82E811105C081E50E94CE35D82E1B
:1054300001C0D12CA11001C010E0212F30E0B1102B
:1054400001C0E12C2E0D311D2130310519F0E1E4B0
:10545000FBE005C0C1101AC0D11018C0F8CF84916C
:105460008F010F5F1F4F882321F00E94A938F80198
:10547000F6CFEBEEF7E084918F010F5F1F4F88238B
:1054800009F4E9C00E94A938F801F5CFF7FE03C07E
:10549000E1E4FBE006C007FF17C0FACF0E94A9387D
:1054A000F80184918F010F5F1F4F8111F7CFECEC52
:1054B000F7E084918F010F5F1F4F882309F4CBC061
:1054C0000E94A938F801F5CF0E949B35A02F000F4C
:1054D000BB0B0F2DFF0C110BDD2091F0F801EE0F2F
:1054E000FF1FE00FF11FEA0FFB1FEE0FFF1FEE0F74
:1054F000FF1FE650F04F208131814281538103C06C
:1055000020E030E0A901F801EE0FFF1F0E0F1F1F72
:105510000A0F1B1F000F111F000F111F0650104F05
:105520000E9458E9D8016D937D938D939C931397B6
:1055300092C00E944A898FC00E9403CC8CC083E530
:105540000E94CE35882319F00E948B3581270E9456
:1055500098C681C081E08093E80F0E94CC831092AE
:10556000E80F882309F477C0ECE5FBE084918F0114
:105570000F5F1F4F882321F00E94A938F801F6CF52
:10558000EBE0F8E084918F010F5F1F4F882309F44F
:1055900062C00E94A938F801F5CF81E080934F01E5
:1055A0001092350583E50E941536882339F00E9454
:1055B0008B35811150C00E94375C4DC083E50E943D
:1055C000CE35F7CF0E941B4A46C0F09087050E9457
:1055D00030D0FF2029F1ECE5FBE084918F010F5FD3
:1055E0001F4F882321F00E94A938F801F6CF84E5E7
:1055F0000E94A9386F2D70E080E090E04AE00E94A0
:10560000134180E20E94A938E8E2F8E084918F011A
:105610000F5F1F4F8823F9F00E94A938F801F6CFD9
:105620001092040AECE5FBE084918F010F5F1F4F9D
:10563000882321F00E94A938F801F6CF6091040A6E
:1056400070E086E198E00E94C86C8AE00E94A93868
:1056500002C00E941B4A10920C060E941A5C73C57D
:105660000E9422360E943C58F6CF11110C94681A01
:105670000C94611A0E946735AB01BC014093601322
:105680005093611360936213709363138FEA92E1F6
:105690000E948CC2E0CF0E949B350E94C4EA7093A6
:1056A000DE026093DD0280E00E94A4B30E949B357D
:1056B00020E030E04AEA52E40E9427E518162CF078
:1056C0000E946EA40E9464D802C00E9446B96091F4
:1056D000DD027091DE02072E000C880B990B0E94F0
:1056E0002EE52091F3073091F4074091F507509192
:1056F000F6070E94B8EB181634F0ECA1E11108C0CF
:105700008BE192E002C088E292E060E00E940253E6
:105710000E94386D81E080933D011CA61DA61EA647
:105720001FA61DAA1EAA1FAA18AE18A619AEFCE332
:10573000FAAF2CE12BAF36E43CAFC12CD12C20E8E2
:10574000E22E3FEBF32E812C912C54016091DD026F
:105750007091DE02072E000C880B990B0E942EE53B
:10576000162F072F782E692E262F372F482F592FC7
:10577000B601C7010E9427E58823C1F02091F307F5
:105780003091F4074091F5075091F607612F702F83
:10579000872D962D0E9427E5881F8827881F88A7B8
:1057A0004CA1442339F0882329F074C11C2D0D2D00
:1057B0007E2C6F2C0E94F44C6B017C01DC01CB0130
:1057C0002DA93EA94FA958AD821B930BA40BB50B75
:1057D000B7FD3BC0D701C60188519C4FAF4FBF4FAB
:1057E0008DAB9EABAFABB8AF0E94436CE7E1F2E08C
:1057F00084912F019FEF491A590A882321F00E94B2
:10580000A938F201F5CF81149104A104B104B9F0D3
:10581000D501C401805F984DAF4FBF4FBC01CD0192
:105820006C197D098E099F0928EE33E040E050E0B5
:105830000E941BE9CA01B9010E94BD4103C08FE368
:105840000E94A9388AE00E94A9380E948B550E94C4
:10585000F44C60930D0670930E0680930F069093A0
:105860001006A091F307A8ABB091F407B9ABE09193
:10587000F507EAABF091F607FBAB9D01AF01612F95
:10588000702F872D962D0E9457E91B012C0120E0D7
:1058900030E0A9010E94B8EB87FF04C057FA50948A
:1058A00057F8509481149104A104B10459F420E0F4
:1058B00030E040E85FE3C201B1010E9427E587FFC5
:1058C0000DC00AC020E030E040E450E4C201B10164
:1058D0000E94B8EB181614F44601570128A522239C
:1058E000C1F18CA59DA5AEA5BFA5892B8A2B8B2BBD
:1058F00061F0D701C6012CA53DA54EA55FA5821B71
:10590000930BA40BB50BB7FD24C028A939A94AA94C
:105910005BA969AD7AAD8BAD9CAD0E9457E920E0E3
:1059200030E040EC5FE30E9427E587FDB3C0D7017C
:10593000C601805A9541AF4FBF4F8CA79DA7AEA718
:10594000BFA798A999AFA9A9AAAFBAA9BBAFEBA95C
:10595000ECAF80913D01882309F49CC0811491042F
:10596000A104B10429F4C12ED02EE72CF62CEECEE2
:10597000F0E1CF1AF7E2DF0AE108F108C818D90808
:10598000EA08FB08F7FE86C0EECF0E949B350E9416
:10599000C4EA6D3771050CF076C17093DC02609338
:1059A000DB020E9459B30E949B3520E030E040EAC0
:1059B00050E40E94B8EB181614F40E9446B96091A6
:1059C000DB027091DC02072E000C880B990B0E9401
:1059D0002EE52091F7073091F8074091F907509193
:1059E000FA070E94B8EB18160CF45BC089E392E04A
:1059F00060E00E94025381E080933D018091040A9F
:105A00008093770618A619A61AA61BA61DAA1EAA79
:105A10001FAA18AE1CA219AE2CE32AAF3CE13BAF83
:105A200046E44CAFC12CD12C80E8E82E9FEBF92E38
:105A3000812C912C54016091DB027091DC02072EC5
:105A4000000C880B990B0E942EE5162F072F782E3D
:105A5000692E262F372F482F592FB601C7010E94D4
:105A600027E5882309F12091F7073091F807409145
:105A7000F9075091FA07612F702F872D962D0E94FC
:105A800027E5881F8827881F8CA35BA9552381F0F1
:105A9000882371F080913D01882309F4DCCD0C94BA
:105AA000A91E88E492E0A4CF1C2D0D2D7E2C6F2C16
:105AB0000E94F44C6B017C01DC01CB012DA93EA9B5
:105AC0004FA958AD821B930BA40BB50BB7FD3BC080
:105AD000D701C60188519C4FAF4FBF4F8DAB9EABD6
